20120331-10:25:15, FIX.4.0:BANZAI->EXEC, outgoing> (8=FIX.4.0|9=61|35=A|34=1|49=BANZAI|52=20120331-10:25:15|56=EXEC|98=0|108=30|10=255|)
20120331-10:25:15, FIX.4.1:BANZAI->EXEC, outgoing> (8=FIX.4.1|9=61|35=A|34=1|49=BANZAI|52=20120331-10:25:15|56=EXEC|98=0|108=30|10=000|)
20120331-10:25:15, FIX.4.2:BANZAI->EXEC, outgoing> (8=FIX.4.2|9=65|35=A|34=1|49=BANZAI|52=20120331-10:25:15.680|56=EXEC|98=0|108=30|10=209|)
20120331-10:25:15, FIX.4.3:BANZAI->EXEC, outgoing> (8=FIX.4.3|9=65|35=A|34=1|49=BANZAI|52=20120331-10:25:15.596|56=EXEC|98=0|108=30|10=216|)
20120331-10:25:15, FIX.4.4:BANZAI->EXEC, outgoing> (8=FIX.4.4|9=65|35=A|34=1|49=BANZAI|52=20120331-10:25:15.696|56=EXEC|98=0|108=30|10=218|)
20120331-10:25:15, FIXT.1.1:BANZAI->EXEC, outgoing> (8=FIXT.1.1|9=72|35=A|34=1|49=BANZAI|52=20120331-10:25:15.718|56=EXEC|98=0|108=30|1137=7|10=098|)
20120331-10:25:15, FIX.4.0:BANZAI->EXEC, incoming> (8=FIX.4.0|9=61|35=A|34=1|49=EXEC|52=20120331-10:25:15|56=BANZAI|98=0|108=30|10=255|)
20120331-10:25:15, FIX.4.1:BANZAI->EXEC, incoming> (8=FIX.4.1|9=61|35=A|34=1|49=EXEC|52=20120331-10:25:15|56=BANZAI|98=0|108=30|10=000|)
20120331-10:25:15, FIX.4.2:BANZAI->EXEC, incoming> (8=FIX.4.2|9=65|35=A|34=1|49=EXEC|52=20120331-10:25:15.732|56=BANZAI|98=0|108=30|10=207|)
20120331-10:25:15, FIX.4.3:BANZAI->EXEC, incoming> (8=FIX.4.3|9=65|35=A|34=1|49=EXEC|52=20120331-10:25:15.721|56=BANZAI|98=0|108=30|10=206|)
20120331-10:25:15, FIX.4.4:BANZAI->EXEC, incoming> (8=FIX.4.4|9=65|35=A|34=1|49=EXEC|52=20120331-10:25:15.738|56=BANZAI|98=0|108=30|10=215|)
20120331-10:25:15, FIXT.1.1:BANZAI->EXEC, incoming> (8=FIXT.1.1|9=72|35=A|34=1|49=EXEC|52=20120331-10:25:15.871|56=BANZAI|98=0|108=30|1137=7|10=098|)
20120331-10:25:46, FIX.4.2:BANZAI->EXEC, incoming> (8=FIX.4.2|9=53|35=0|34=2|49=EXEC|52=20120331-10:25:46.426|56=BANZAI|10=167|)
20120331-10:25:46, FIX.4.0:BANZAI->EXEC, incoming> (8=FIX.4.0|9=49|35=0|34=2|49=EXEC|52=20120331-10:25:46|56=BANZAI|10=224|)
20120331-10:25:46, FIX.4.2:BANZAI->EXEC, outgoing> (8=FIX.4.2|9=53|35=0|34=2|49=BANZAI|52=20120331-10:25:46.432|56=EXEC|10=164|)
20120331-10:25:46, FIX.4.0:BANZAI->EXEC, outgoing> (8=FIX.4.0|9=49|35=0|34=2|49=BANZAI|52=20120331-10:25:46|56=EXEC|10=224|)
20120331-10:25:46, FIX.4.3:BANZAI->EXEC, incoming> (8=FIX.4.3|9=53|35=0|34=2|49=EXEC|52=20120331-10:25:46.437|56=BANZAI|10=170|)
20120331-10:25:46, FIX.4.3:BANZAI->EXEC, outgoing> (8=FIX.4.3|9=53|35=0|34=2|49=BANZAI|52=20120331-10:25:46.441|56=EXEC|10=165|)
20120331-10:25:46, FIX.4.1:BANZAI->EXEC, outgoing> (8=FIX.4.1|9=49|35=0|34=2|49=BANZAI|52=20120331-10:25:46|56=EXEC|10=225|)
20120331-10:25:46, FIX.4.4:BANZAI->EXEC, outgoing> (8=FIX.4.4|9=53|35=0|34=2|49=BANZAI|52=20120331-10:25:46.447|56=EXEC|10=172|)
20120331-10:25:46, FIXT.1.1:BANZAI->EXEC, outgoing> (8=FIXT.1.1|9=53|35=0|34=2|49=BANZAI|52=20120331-10:25:46.450|56=EXEC|10=244|)
20120331-10:25:46, FIX.4.4:BANZAI->EXEC, incoming> (8=FIX.4.4|9=53|35=0|34=2|49=EXEC|52=20120331-10:25:46.445|56=BANZAI|10=170|)
20120331-10:25:46, FIX.4.1:BANZAI->EXEC, incoming> (8=FIX.4.1|9=49|35=0|34=2|49=EXEC|52=20120331-10:25:46|56=BANZAI|10=225|)
20120331-10:25:46, FIXT.1.1:BANZAI->EXEC, incoming> (8=FIXT.1.1|9=53|35=0|34=2|49=EXEC|52=20120331-10:25:46.456|56=BANZAI|10=250|)
20120331-10:26:16, FIX.4.2:BANZAI->EXEC, outgoing> (8=FIX.4.2|9=53|35=0|34=3|49=BANZAI|52=20120331-10:26:16.438|56=EXEC|10=169|)
20120331-10:26:16, FIX.4.0:BANZAI->EXEC, outgoing> (8=FIX.4.0|9=49|35=0|34=3|49=BANZAI|52=20120331-10:26:16|56=EXEC|10=223|)
20120331-10:26:16, FIX.4.2:BANZAI->EXEC, incoming> (8=FIX.4.2|9=53|35=0|34=3|49=EXEC|52=20120331-10:26:16.441|56=BANZAI|10=163|)
20120331-10:26:16, FIX.4.0:BANZAI->EXEC, incoming> (8=FIX.4.0|9=49|35=0|34=3|49=EXEC|52=20120331-10:26:16|56=BANZAI|10=223|)
20120331-10:26:17, FIX.4.3:BANZAI->EXEC, incoming> (8=FIX.4.3|9=53|35=0|34=3|49=EXEC|52=20120331-10:26:17.418|56=BANZAI|10=169|)
20120331-10:26:17, FIX.4.3:BANZAI->EXEC, outgoing> (8=FIX.4.3|9=53|35=0|34=3|49=BANZAI|52=20120331-10:26:17.421|56=EXEC|10=163|)
20120331-10:26:17, FIX.4.4:BANZAI->EXEC, incoming> (8=FIX.4.4|9=53|35=0|34=3|49=EXEC|52=20120331-10:26:17.419|56=BANZAI|10=171|)
20120331-10:26:17, FIX.4.4:BANZAI->EXEC, outgoing> (8=FIX.4.4|9=53|35=0|34=3|49=BANZAI|52=20120331-10:26:17.424|56=EXEC|10=167|)
20120331-10:26:17, FIXT.1.1:BANZAI->EXEC, incoming> (8=FIXT.1.1|9=53|35=0|34=3|49=EXEC|52=20120331-10:26:17.420|56=BANZAI|10=241|)
20120331-10:26:17, FIXT.1.1:BANZAI->EXEC, outgoing> (8=FIXT.1.1|9=53|35=0|34=3|49=BANZAI|52=20120331-10:26:17.427|56=EXEC|10=248|)
20120331-10:26:17, FIX.4.1:BANZAI->EXEC, incoming> (8=FIX.4.1|9=49|35=0|34=3|49=EXEC|52=20120331-10:26:17|56=BANZAI|10=225|)
20120331-10:26:17, FIX.4.1:BANZAI->EXEC, outgoing> (8=FIX.4.1|9=49|35=0|34=3|49=BANZAI|52=20120331-10:26:17|56=EXEC|10=225|)
20120331-10:26:33, FIX.4.4:BANZAI->EXEC, outgoing> (8=FIX.4.4|9=132|35=D|34=4|49=BANZAI|52=20120331-10:26:33.264|56=EXEC|11=1333189593005|21=1|38=100|40=1|54=1|55=GOOG.N|59=0|60=20120331-10:26:33.257|10=219|)
20120331-10:26:33, FIX.4.4:BANZAI->EXEC, incoming> (8=FIX.4.4|9=123|35=8|34=4|49=EXEC|52=20120331-10:26:33.507|56=BANZAI|6=0|11=1333189593005|14=0|17=1|37=1|39=0|54=1|55=GOOG.N|150=2|151=100|10=181|)
20120331-10:26:33, FIX.4.4:BANZAI->EXEC, incoming> (8=FIX.4.4|9=148|35=8|34=5|49=EXEC|52=20120331-10:26:33.509|56=BANZAI|6=12.3|11=1333189593005|14=100|17=2|31=12.3|32=100|37=2|38=100|39=2|54=1|55=GOOG.N|150=2|151=0|10=043|)
20120331-10:29:25, FIXT.1.1:BANZAI->EXEC, outgoing> (8=FIXT.1.1|9=130|35=D|34=5|49=BANZAI|52=20120331-10:29:25.303|56=EXEC|11=1333189765081|21=1|38=25|40=1|54=2|55=ABC.N|59=1|60=20120331-10:29:25.301|10=151|)
20120331-10:29:25, FIXT.1.1:BANZAI->EXEC, incoming> (8=FIXT.1.1|9=117|35=8|34=5|49=EXEC|52=20120331-10:29:25.380|56=BANZAI|11=1333189765081|14=0|17=3|37=3|39=0|54=2|55=ABC.N|150=2|151=25|10=224|)
20120331-10:29:25, FIXT.1.1:BANZAI->EXEC, incoming> (8=FIXT.1.1|9=144|35=8|34=6|49=EXEC|52=20120331-10:29:25.381|56=BANZAI|6=12.3|11=1333189765081|14=25|17=4|31=12.3|32=25|37=4|38=25|39=2|54=2|55=ABC.N|150=2|151=0|10=158|)
20120331-10:29:28, FIX.4.2:BANZAI->EXEC, incoming> (8=FIX.4.2|9=53|35=0|34=5|49=EXEC|52=20120331-10:29:28.418|56=BANZAI|10=175|)
20120331-10:29:28, FIX.4.2:BANZAI->EXEC, outgoing> (8=FIX.4.2|9=53|35=0|34=5|49=BANZAI|52=20120331-10:29:28.423|56=EXEC|10=171|)
